:100000000C94B7000C94DF000C94DF000C94DF001C
:100010000C94DF000C94DF000C94DF000C94020AB7
:100020000C94DF000C94DF000C94DF000C94CC0BDC
:100030000C94DF000C94DF000C94DF000C94DF00C4
:100040000C94DF000C94DF000C94DF000C94DF00B4
:100050000C94DF000C94CB090C94DF000C94DF00AF
:100060000C94DF000C94DF006E616E00696E660018
:1000700000407A10F35A00A0724E18090010A5D45F
:10008000E80000E87648170000E40B54020000CABC
:100090009A3B000000E1F505000080969800000002
:1000A00040420F000000A086010000001027000061
:1000B0000000E803000000006400000000000A00E7
:1000C000000000000100000000002C76D888DC67EA
:1000D0004F0823DFC1DFAE59E1B1B796E5E3E45342
:1000E000C63AE651997696E8E6C28426EB898C9B5F
:1000F00062ED407C6FFCEFBC9C9F40F2BAA56FA5FF
:10010000F490055A2AF75C936B6CF9676DC11BFC80
:10011000E0E40D47FEF520E6B500D0ED902E03009B
:10012000943577050080841E080000204E0A0000E8
:1001300000C80C333333330F986E12831141EF8DA7
:100140002114893BE65516CFFEE6DB18D1844B38E7
:100150001BF77C1D901DA4BBE424203284725E2218
:100160008100C9F124ECA1E53D27630A3B0B112472
:100170001FBECFEFD8E0DEBFCDBF11E0A0E0B1E001
:10018000E6EEFCE102C005900D92A031B107D9F76F
:1001900011E0A0E1B1E001C01D92A537B107E1F780
:1001A00011E0CEE6D1E004C02297FE010E94DA0CF5
:1001B000CA36D107C9F70E947F090C94710E0C94BE
:1001C0000000A0E0B0E0E7EEF0E00C94A50C3C01EC
:1001D000CB01EA01D3012C91223008F43EC1FB018E
:1001E0003081323008F436C1243071F4343009F0F3
:1001F00034C111962C918181281709F42EC1B7E0E2
:100200006B2EB1E07B2E29C1343009F423C132308A
:1002100091F4223009F021C128E0F301DA010190C4
:100220000D922A95E1F7DB0111968C91F3019181F2
:100230008923898311C1223009F40CC1D30112969C
:10024000ED91FC911397DB0112966D917C911397C0
:10025000D30114960D911D912D913C911797DC01BE
:100260001496CD90DD90ED90FC901797AF01461B52
:10027000570BDA0157FF04C0AA27BB27A41BB50BF5
:10028000A032B1050CF065C0141615067CF5B70157
:10029000A6010A2E04C076956795579547950A944E
:1002A000D2F7812C912C5401839404C0880C991CA2
:1002B000AA1CBB1CAA95D2F7B1E08B1A9108A10821
:1002C000B1088C209D20AE20BF20C12CD12C7601FE
:1002D000C39481149104A104B10419F4C12CD12C4C
:1002E0007601C42AD52AE62AF72A3EC0452BE1F139
:1002F000EA0FFB1FB901A8010A2E04C07695679585
:10030000579547950A94D2F7812C912C54018394E8
:1003100004C0880C991CAA1CBB1CAA95D2F7A1E0AA
:100320008A1A9108A108B10880229122A222B32240
:1003300001E010E020E030E081149104A104B10458
:1003400019F400E010E09801042B152B262B372B15
:100350000BC06E177F0724F4C12CD12C760104C08A
:10036000FB0100E010E09801D30111964C91DC01F3
:1003700011968C91481709F442C0442349F0D701E3
:10038000C601801B910BA20BB30B8C019D0104C015
:100390000C191D092E093F0937FD04C01982FB8382
:1003A000EA830BC081E08983FB83EA833095209543
:1003B000109501951F4F2F4F3F4F0C831D832E83A8
:1003C0003F830DC0880F991FAA1FBB1F8C839D837D
:1003D000AE83BF838A819B8101979B838A838C81B3
:1003E0009D81AE81BF818C019D01015011092109C0
:1003F00031090F3F1F4F2F4F3F4320F30BC049835D
:10040000FB83EA830C0D1D1D2E1D3F1D0C831D83D8
:100410002E833F8383E088830C811D812E813F8161
:1004200037FF1AC0D901C80181709927AA27BB27B5
:100430003695279517950795802B912BA22BB32BDB
:100440008C839D83AE83BF838A819B8101969B832E
:100450008A8302C03C0101C03E01C301CDB7DEB7B3
:10046000EEE00C94C10CA0E2B0E0E9E3F2E00C9401
:10047000B10C6D8F7E8F8F8F98A3298F3A8F4B8F02
:100480005C8FBE016F5E7F4FCE014D960E9483054B
:10049000BE01675F7F4FCE0149960E948305AE0182
:1004A0004F5F5F4FBE01675F7F4FCE0141960E9455
:1004B000E1000E94C204A096E2E00C94CD0CA0E200
:1004C000B0E0E5E6F2E00C94B10C6D8F7E8F8F8F7B
:1004D00098A3298F3A8F4B8F5C8FBE016F5E7F4F41
:1004E000CE014D960E948305BE01675F7F4FCE010E
:1004F00049960E9483058A8591E089278A87AE0103
:100500004F5F5F4FBE01675F7F4FCE0141960E94F4
:10051000E1000E94C204A096E2E00C94CD0CA0E29F
:10052000B0E0E5E9F2E00C94A30C6D8F7E8F8F8F25
:1005300098A3298F3A8F4B8F5C8FBE016F5E7F4FE0
:10054000CE014D960E948305BE01675F7F4FCE01AD
:1005500049960E9483059989923008F412C08985D2
:10056000823008F41AC0943021F4823009F4B4C007
:1005700008C0843021F4923009F4AEC00EC092302D
:1005800051F481E02A899A85291301C080E08A8B81
:10059000CE014196A3C0823051F481E02A899A8528
:1005A000291301C080E08A87CE01099697C08D8803
:1005B0009E88AF88B88C0D851E852F853889E0E22E
:1005C000F0E080E090E0DC01C12CD12C760140E02D
:1005D00050E0BA0180FE18C0400F511F621F731F08
:1005E0008C0D9D1DAE1DBF1D412C512C320143941D
:1005F000401751076207730718F0412C512C320144
:10060000840D951DA61DB71DCC0CDD1CEE1CFF1C1A
:1006100037FF02C06894C0F8000F111F221F331F5C
:10062000B694A794979487943197A1F62B893C8927
:10063000EB85FC852E0F3F1F2E5F3F4F3C832B83A6
:1006400021E0EA893A85E31301C020E02A83EB81A7
:10065000FC810CC080FF05C076956795579547953E
:100660007068B695A795979587953196B7FDF2CFA7
:100670009F010CC0880F991FAA1FBB1F77FD8160C7
:10068000440F551F661F771F215031090097A105A0
:10069000E0E4BE0778F32B833C838C019D010F7748
:1006A000112722273327003411052105310559F47C
:1006B00087FD09C0452B462B472B29F0805C9F4FB7
:1006C000AF4FBF4F80788D839E83AF83B88783E021
:1006D0008983CE01019602C087E091E00E94C204A6
:1006E000A096E0E10C94BF0CA8E1B0E0EAE7F3E0EB
:1006F0000C94AB0C6D8B7E8B8F8B988F298B3A8BE8
:100700004B8B5C8BBE01675F7F4FCE0145960E948D
:100710008305BE016F5F7F4FCE0141960E94830526
:100720009985923008F475C08981823008F474C0CC
:100730002A853A8123272A87943011F0923019F4C0
:10074000981367C06CC0843039F41D861E861F86DE
:10075000188A1C861B8604C0823029F484E08987AD
:10076000CE0109965EC08B859C852B813C81821BC6
:10077000930B9C878B874D855E856F857889CD80AF
:10078000DE80EF80F8844C155D056E057F0538F43A
:10079000440F551F661F771F01979C878B87EFE1DA
:1007A000F0E000E010E020E030E480E090E0DC01E8
:1007B0004C155D056E057F0540F0802B912BA22B1B
:1007C000B32B4C195D096E097F093695279517954E
:1007D0000795440F551F661F771F319749F78C0106
:1007E0009D010F771127222733270034110521059A
:1007F000310559F487FD09C0452B462B472B29F0BD
:10080000805C9F4FAF4FBF4F80788D879E87AF87AB
:10081000B88BCE01099605C0CE01019602C087E0D3
:1008200091E00E94C2046896E8E00C94C70CA8E02E
:10083000B0E0EDE1F4E00C94AF0C23E029838B01F0
:100840009C01002737FD0395112722273327402FCE
:100850000A83611571058105910519F482E0898388
:1008600035C02EE130E03C832B83442371F06115C9
:100870007105810520E8920771F100271127980181
:10088000061B170B280B390B02C08B019C01C901F9
:10089000B8010E94DE0C0197181619062CF00D8382
:1008A0001E832F83388712C0082E04C0000F111F2B
:1008B000221F331F0A94D2F70D831E832F8338879C
:1008C0002EE130E0281B390B3C832B83CE010196AF
:1008D0000E94C20404C060E070E080E09FEC2896B3
:1008E000E4E00C94CB0CACE0B0E0E9E7F4E00C946D
:1008F000AF0C69877A878B879C87BE016F5F7F4FBC
:10090000CE0109960E9483058981823091F182305F
:1009100080F1843041F48A81882331F100E010E0D5
:1009200020E030E829C02B813C8137FD22C02F31E7
:1009300031058CF78EE190E0821B930B0D811E81B7
:100940002F81388504C036952795179507958A9588
:10095000D2F78A81882381F03095209510950195F2
:100960001F4F2F4F3F4F08C00FEF1FEF2FEF3FE7F5
:1009700003C000E010E09801B801C9012C96E4E042
:100980000C94CB0C0F931F93CF93FC0144815581A2
:1009900066817781C1818081823020F460618FEF30
:1009A00090E0A3C0843009F49BC0823009F492C067
:1009B000411551056105710509F48FC0228133810C
:1009C00022388FEF38070CF057C0E2E8FFEFE21B48
:1009D000F30BEA31F10564F58A019B010E2E04C088
:1009E00036952795179507950A94D2F781E090E000
:1009F000A0E0B0E004C0880F991FAA1FBB1FEA95B2
:100A0000D2F70197A109B10984239523A623B7231F
:100A100041E050E060E070E0892B8A2B8B2B19F4C9
:100A200040E050E0BA01402B512B622B732B03C0E6
:100A300040E050E0BA01DB01CA018F779927AA276D
:100A4000BB2780349105A105B10539F447FF09C0E2
:100A5000405C5F4F6F4F7F4F04C0415C5F4F6F4FF3
:100A60007F4F81E090E041155105610520E4720758
:100A700048F580E090E026C0203831058CF5DB0198
:100A8000CA018F779927AA27BB2780349105A10532
:100A9000B10539F447FF09C0405C5F4F6F4F7F4F8E
:100AA00004C0415C5F4F6F4F7F4F77FD04C0C901A9
:100AB00081589F4F07C07695679557954795C9010F
:100AC00080589F4F97E076956795579547959A95EB
:100AD000D1F70BC080E090E005C080E090E005C059
:100AE0008FEF90E040E050E0BA01982F9695C0FB60
:100AF00097F9362F80FB37F9642F752F832FCF910D
:100B00001F910F910895CF92DF92EF92DC01FB01CC
:100B1000CC901196DC90119712968C9112973FE72A
:100B2000E32EE8226E2DA60170E0982F991F9927D9
:100B3000991F13962C91822F880F892B90E027FB09
:100B4000222720F92183009729F5411551056105D8
:100B5000710511F482E027C082E89FEF93838283BE
:100B600027E0440F551F661F771F2A95D1F783E0B2
:100B7000808309C0440F551F661F771F82819381B0
:100B800001979383828341155105610580E47807BD
:100B900088F320C08F3F910579F441155105610517
:100BA000710519F484E0808319C0E4FE03C081E07C
:100BB000808310C010820EC08F5791099383828367
:100BC00083E0808387E0440F551F661F771F8A9557
:100BD000D1F770644483558366837783EF90DF9009
:100BE000CF900895A3E1B0E0E8EFF5E00C94A10CFC
:100BF0007C015B018A01FC0117821682838181FDE1
:100C000003C06DC3860105C088248394912C8C0E8B
:100C10009D1EF7019381F50193FD859193FF8191CD
:100C20005F01882309F457C3853239F493FD859118
:100C300093FF81915F01853231F4B70190E00E940A
:100C4000E70D6801DFCF412C512C20E02032A8F4C1
:100C50008B3261F028F4803251F0833271F40BC092
:100C60008D3239F0803349F4216028C0226024603D
:100C700025C0286023C0206121C027FD27C0382F50
:100C800030533A3078F426FF06C0FAE04F9E300D1C
:100C90001124432E13C08AE0589E300D1124532E88
:100CA00020620CC08E3221F426FD15C3206406C0DC
:100CB0008C3611F4206802C0883641F4F50193FDAA
:100CC000859193FF81915F018111C0CF982F955439
:100CD000933018F42061805E06C0982F95569330AB
:100CE00008F0A1C12F7E26FD02C056E0452E4FE33D
:100CF000742E7222853619F4F0E47F2A07C08636F6
:100D000019F420E8722A02C041104A9477FE07C005
:100D10003BE3341548F0342C339427E00DC087E0D2
:100D2000841530F0242D07C027E03CE3332E04C0A7
:100D300027E097E0492E312C680194E0C90ED11CC0
:100D4000F8016081718182819381032DA4010E9449
:100D5000F90C8C0129812C8720FF02C023FF07C0DA
:100D600071FC08C072FE09C080E2682E07C0BDE2B7
:100D70006B2E04C0ABE26A2E01C0612C8C858C7096
:100D8000A1F1662011F084E001C083E0851510F028
:100D9000512C0BC0581A73FC08C0B70180E290E0D8
:100DA0000E94E70D5A94C9F7F3CF662029F0B701E6
:100DB000862D90E00E94E70D3C8533FD03C00CE6D4
:100DC00010E00CC008E610E009C071108052B701B5
:100DD00090E00E94E70D0F5F1F4F02C080E1782274
:100DE000F80184918111F1CF73C277FE0EC0300EED
:100DF0002C8524FF04C08A81813309F43A941314AA
:100E00004CF538E0331548F12CC076FC2AC0242D6F
:100E100030E02017310744F00C3F8FEF180724F023
:100E200090E8792A01C04A94442049F0E2E0F0E0D9
:100E3000EC0FFD1FE40DF11D80818033A1F377FEDF
:100E400010C0342C3394242D30E00217130744F4DF
:100E5000401A07C03324339404C0F8E03F2E01C089
:100E6000412C77FE07C0101611063CF498012F5F45
:100E70003F4F05C025E030E002C021E030E06620B1
:100E800011F02F5F3F4F442031F0442D50E04F5F71
:100E90005F4F240F351F452D50E02417350714F4FC
:100EA000521A01C0512C872D897049F406C0B70130
:100EB00080E290E00E94E70D5A945110F8CF66202E
:100EC00029F0B701862D90E00E94E70D73FC09C060
:100ED00006C0B70180E390E00E94E70D5A945110DC
:100EE000F8CF77FE53C0380117FF02C0612C712C78
:100EF0001E861D86980123193109388B2F8718010A
:100F000026183708280C391C642D70E02227332757
:100F1000261B370B3A8B298B3FEF6316730629F498
:100F2000B7018EE290E00E94E70D061517055CF010
:100F30002F8538892615370534F4ED85FE85E20DB9
:100F4000F31D818101C080E331E0631A71082D85B2
:100F50003E852F5F3F4F3E872D8729893A8962164C
:100F600073062CF0B70190E00E94E70DD5CF601614
:100F7000710649F49A81963328F4953321F43C851F
:100F800034FD01C081E3B70190E04AC08A8181331A
:100F900019F02C852F7E2C87B70190E00E94E70D79
:100FA000411005C074FE16C085E490E015C0B7017D
:100FB0008EE290E00E94E70DE2E06E2EF401E60D75
:100FC000F11D6394B701808190E00E94E70D4A947F
:100FD000A9F7E8CF85E690E0B7010E94E70D17FD7D
:100FE00006C00115110541F43C8534FF05C011957B
:100FF000019511098DE201C08BE2B70190E00E94DA
:10100000E70D80E303C08F5F0A5011090A30110514
:10101000D4F7B70190E00E94E70DB701C801C09670
:101020000E94E70D55C1833631F0833781F0833557
:1010300009F05EC024C0680182E0C80ED11CF8012E
:101040008081898366246394712C840114C06801B3
:10105000F2E0CF0ED11CF8010081118126FF03C000
:10106000642D70E002C06FEF7FEFC8012B8B0E94F0
:10107000DC0D3C012B896FE7462E422217C0680128
:10108000F2E0CF0ED11CF8010081118126FF03C0D0
:10109000642D70E002C06FEF7FEFC8012B8B0E94C0
:1010A000D10D3C012B8950E8452E422A43FC1CC03F
:1010B00006C0B70180E290E00E94E70D5A94852DAA
:1010C00090E068167906A8F30FC0F80147FC8591F7
:1010D00047FE81918F01B70190E00E94E70D51100A
:1010E0005A94F1E06F1A71086114710471F7F0C03D
:1010F000843611F0893661F5680127FF09C034E0B4
:10110000C30ED11CF80160817181828193810AC074
:10111000F2E0CF0ED11CF80160817181882777FD44
:101120008095982F4FE6742E722297FF09C09095F4
:101130008095709561957F4F8F4F9F4FF0E87F2A84
:101140002AE030E0A4010E94130E682E681847C000
:10115000853731F43FEE732E72222AE030E024C04E
:1011600099EF792E72228F36B9F020F4883509F084
:10117000B2C00DC0803721F0883709F0ACC002C082
:1011800020E1722A74FE0BC034E0732A08C024FFE9
:1011900009C086E0782A06C028E030E005C020E1DA
:1011A00030E002C020E132E0680177FE09C094E03F
:1011B000C90ED11CF801608171818281938108C0C0
:1011C000F2E0CF0ED11CF8016081718180E090E0E7
:1011D000A4010E94130E682E6818FFE77F2276FE96
:1011E0000BC0072D0E7F641450F474FE0AC072FC0D
:1011F00008C0072D0E7E05C0162D072D03C0162D25
:1012000001C0142D04FF0CC0FE01E60DF11D80810C
:10121000803311F4097E08C002FF05C01E5F04C0C0
:10122000802F867809F01F5F03FD12C000FF0DC0FC
:10123000462C151550F4450C411A152D06C0B70162
:1012400080E290E00E94E70D1F5F1515C0F304C017
:10125000151510F4511A01C0512C04FF10C0B7012C
:1012600080E390E00E94E70D02FF1EC001FF03C073
:1012700088E590E002C088E790E0B7010CC0802FBD
:10128000867891F001FD02C080E201C08BE207FD8B
:101290008DE2B70190E00E94E70D06C0B70180E340
:1012A00090E00E94E70D4A946414C0F36A94F4013C
:1012B000E60DF11DB701808190E00E94E70D6110FD
:1012C000F5CF06C0B70180E290E00E94E70D5A9486
:1012D0005110F8CF97CCF7012681378102C02FEF4C
:1012E0003FEFC9016396E2E10C94BD0CF8940E94B3
:1012F000170A0E945A0C259A2D98789408950E94F6
:1013000076090E94DA0AFDCF4091000150E060E0CA
:1013100070E004C076956795579547958A95D2F702
:10132000842F81700895CF93DF93F894E82FF0E035
:10133000EE0FFF1FE05FFE4FC081D1817894CD3367
:10134000D1053CF0C23C93E0D9072CF0C1ECD3E0CE
:1013500002C0CDE3D0E00E948409811104C09E0147
:101360002D53310904C021EC33E02C1B3D0BC90186
:10137000DF91CF9108959091780040917900342FBA
:1013800020E0292BE82FF0E0EE0FFF1FE05FFE4F7B
:101390003183208308951F920F920FB60F9211246C
:1013A0002F933F934F935F936F937F938F939F936D
:1013B000AF93BF93CF93EF93FF93C09120018C2FF6
:1013C0000E94BB098C2F90E001966091010170E0B2
:1013D0000E948D0C8093200198B1987F982B98B92A
:1013E000FF91EF91CF91BF91AF919F918F917F919D
:1013F0006F915F914F913F912F910F900FBE0F9082
:101400001F9018951F920F920FB60F9211248F9371
:10141000EF93FF93EAE7F0E0808180648083FF919F
:10142000EF918F910F900FBE0F901F901895E0E1F4
:10143000F1E08FEF91E003C091838083329621E049
:10144000E032F207C9F787B1807F876087B9809162
:101450007E00807F886080937E0088B1807F88B91D
:1014600087E880937A0080917C008F7180648093FC
:101470007C0080917C00807F836080937C008091E1
:101480007A008F7E80937A0080917A0088608093C2
:101490007A001092B0001092B1001092B20017BA08
:1014A0008DE78093B3008091B00082608093B0009C
:1014B0008091B10083608093B10080917000826060
:1014C00080937000089580E090E0A0E8BFE38093EF
:1014D000210190932201A0932301B09324018093D2
:1014E000250190932601A0932701B093280143E39F
:1014F00053E363EB7FE34093290150932A01609308
:101500002B0170932C0180932D0190932E01A093B9
:101510002F01B09330018093310190933201A09359
:101520003301B09334014DEC5CEC6CE87FE3409305
:1015300035015093360160933701709338018093E1
:10154000390190933A01A0933B01B0933C01809301
:101550003D0190933E01A0933F01B0934001089557
:10156000CF92DF92EF92FF9294E0899FF0011124D5
:10157000EF5BFE4FC080D180E280F3800E94930930
:10158000825C9140BC01882777FD8095982F0E944E
:1015900017049B01AC01C701B6010E948F0220E035
:1015A00030E041E654E40E947403FF90EF90DF9036
:1015B000CF900895CF93DF9300D000D0CDB7DEB7A2
:1015C00080E00E94B00A69837A838B839C83BE018A
:1015D0006F5F7F4F80E00E94930B81E00E94B00A12
:1015E00069837A838B839C83BE016F5F7F4F81E029
:1015F0000E94930B82E00E94B00A2DEC3CEC4CE47C
:101600005EE30E945F0269837A838B839C83BE01C1
:101610006F5F7F4F82E00E94930B83E00E94B00ACD
:1016200069837A838B839C83BE016F5F7F4F83E0E6
:101630000E94930B84E00E94B00A69837A838B83B3
:101640009C83BE016F5F7F4F84E00E94930B85E017
:101650000E94B00A69837A838B839C83BE016F5F8B
:101660007F4F85E00E94930B0F900F900F900F908B
:10167000DF91CF91089580E090E0A0E8BFE38093F0
:10168000410190934201A0934301B09344018093A0
:10169000450190934601A0934701B093480143E36D
:1016A00053E363EB7FE34093490150934A01609316
:1016B0004B0170934C0180934D0190934E01A09388
:1016C0004F01B09350018093510190935201A09328
:1016D0005301B09354014AE959E969E97FE3409322
:1016E00055015093560160935701709358018093B0
:1016F000590190935A01A0935B01B0935C018093D0
:101700005D0190935E01A0935F01B0936001089525
:101710002091630130E002C0359527958A95E2F764
:10172000822F817008950F931F93CF93C82F8B0141
:101730000E94880BF8014081518162817381882366
:1017400021F0CB01BA01905802C0CB01BA0120E0D0
:1017500030E04AE754E40E948F020E94730464520E
:101760007A4F6E3EF2E07F073CF06B3C88E07807F2
:101770002CF06AEC78E002C06EEE72E0F894EC2F88
:10178000F0E0EE0FFF1FEC59FE4F718360837894F9
:10179000CF911F910F9108951F920F920FB60F9244
:1017A00011242F933F934F935F936F937F938F9366
:1017B0009F93AF93BF93EF93FF9320910401809188
:1017C0000501909106012223D1F1E091740120914D
:1017D0000201E2130DC080599140880F991F909328
:1017E000890080938800809161019091620112C00C
:1017F000F0E0EE0FFF1FEC59FE4F208131812059A0
:101800003140A901440F551F50938900409388002F
:10181000821B930B90930601809305018091030135
:10182000882321F080918000806C04C0809180002A
:101830008F73806880938000109204012AC020E298
:1018400033E0309389002093880080599140909331
:1018500006018093050180910301811104C08091EC
:101860008000806C04C0809180008F7380688093BA
:1018700080008091740190E001966091020170E017
:101880006F5F7F4F0E948D0C8093740181E0809385
:101890000401FF91EF91BF91AF919F918F917F9143
:1018A0006F915F914F913F912F910F900FBE0F90CD
:1018B0001F90189580E29EE49093620180936101ED
:1018C000E4E6F1E08CED95E003C0918380833296ED
:1018D00021E0E437F207C9F7219A29981092800095
:1018E00010928100109285001092840080ED97E0A4
:1018F0009093890080938800809181008860809314
:10190000810080918100826080938100B1988091F4
:101910006F00826080936F000895AA1BBB1B51E18A
:1019200007C0AA1FBB1FA617B70710F0A61BB70B4F
:10193000881F991F5A95A9F780959095BC01CD01F4
:1019400008952F923F924F925F926F927F928F9263
:101950009F92AF92BF92CF92DF92EF92FF920F933E
:101960001F93CF93DF93CDB7DEB7CA1BDB0B0FB648
:10197000F894DEBF0FBECDBF09942A883988488805
:101980005F846E847D848C849B84AA84B984C8849B
:10199000DF80EE80FD800C811B81AA81B981CE0F92
:1019A000D11D0FB6F894DEBF0FBECDBFED01089577
:1019B000EE0FFF1F0590F491E02D09940E94E70CB3
:1019C00084FF0895CB010E94E70C805F0895AA2749
:1019D000992329F4A85F982B11F480E108959031A0
:1019E00018F4AD5F9295A395990FE8F78A2F992780
:1019F0000895283008F027E03327DA01990F311DC8
:101A000087FD916000966105710539F432602E5FA3
:101A10003D9330E32A95E1F708959F3F30F08038F9
:101A20007105610509F03C5F3C5F3D93913008F022
:101A30008068911DDF93CF931F930F93FF92EF92D6
:101A4000192F987F9695E92F96959695E90FFF2780
:101A5000E653FF4F99273327EE24FF24A701E70120
:101A600005900894079428F4360FE71EF81E491FC6
:101A7000511D660F771F881F991F0694A1F70590C7
:101A8000079428F4E70EF81E491F561FC11D770F53
:101A9000881F991F661F0694A1F70590079428F4E4
:101AA000F80E491F561FC71FD11D880F991F661FAB
:101AB000771F0694A1F70590079420F4490F561F4D
:101AC000C71FD81F990F661F771F881F0694A9F795
:101AD00084911095177041F0D695C7955795479505
:101AE000F794E7941A95C1F7E0E7F0E06894159051
:101AF000159135916591959105907FE27395E11867
:101B0000F10A430B560BC90BD009C0F7E10CF11ECB
:101B1000431F561FC91FD01D7EF4703311F48A95E0
:101B2000E6CFE894015030F0080F0AF400270217BE
:101B300008F4202F2395022F7A3328F079E37D9340
:101B40002A95E9F710C07D932A9589F60694979512
:101B50006795379517951794E118F10A430B560BC3
:101B6000C90BD00998F023957E9173957A3308F0CC
:101B700070E37C932013B8F77E9170617D9330F011
:101B8000839571E37D9370E32A95E1F71124EF903B
:101B9000FF900F911F91CF91DF91992787FD90952D
:101BA0000895FC010590615070400110D8F78095B0
:101BB00090958E0F9F1F0895FC0161507040019019
:101BC0000110D8F7809590958E0F9F1F08950F9361
:101BD0001F93CF93DF938C01EB018B8181FD03C0B9
:101BE0000FEF1FEF1AC082FF0DC02E813F818C8145
:101BF0009D812817390764F4E881F9810193F983FD
:101C0000E88306C0E885F985802F0995892B41F77F
:101C10008E819F8101969F838E83C801DF91CF9132
:101C20001F910F910895FA01AA27283051F1203110
:101C300081F1E8946F936E7F6E5F7F4F8F4F9F4F60
:101C4000AF4FB1E03ED0B4E03CD0670F781F891FA2
:101C50009A1FA11D680F791F8A1F911DA11D6A0F70
:101C6000711D811D911DA11D20D009F468943F9123
:101C70002AE0269F11243019305D3193DEF6CF0122
:101C80000895462F4770405D4193B3E00FD0C9F7E8
:101C9000F6CF462F4F70405D4A3318F0495D31FD55
:101CA0004052419302D0A9F7EACFB4E0A6959795A8
:101CB000879577956795BA95C9F70097610571057E
:101CC00008959B01AC010A2E0694579547953795C8
:101CD0002795BA95C9F7620F731F841F951FA01D22
:061CE0000895F894FFCF07
:101CE6000C08080101F0550000000000000000008B
:00000001FF
